:020000040800F2
:100000006006002099010008A1010008A301000872
:10001000A5010008A7010008A901000800000000D0
:10002000000000000000000000000000AB0100081C
:10003000AD01000800000000AF010008B101000898
:10004000B3010008B3010008B3010008B3010008C0
:10005000B3010008B3010008B3010008B3010008B0
:10006000B3010008B3010008B3010008B3010008A0
:10007000B3010008B3010008B3010008B301000890
:10008000B3010008B3010008B3010008B301000880
:10009000B3010008B3010008B3010008B301000870
:1000A000B3010008B3010008B3010008B301000860
:1000B000B3010008B301000800000000B30100080C
:1000C000B30100080000000000000000B3010008B8
:1000D00000000000B3010008B301000800000000A8
:1000E000B3010008B3010008B301000800F002F8F2
:1000F00000F042F814A696E8000CB244B344DA4586
:1001000001D100F039F8BAE80F000FA696E83000E8
:10011000A5EB040504EB0607AAEB0704A7F101070A
:100120004FEA15154FEA3414A4F10104AC4201D38F
:1001300000F022F813F0010F18BFFB1A43F001037F
:1001400000F001F8DBE7184740040000500400000D
:10015000704700000023002400250026103A28BF25
:1001600078C1FBD8520728BF30C148BF0B60704729
:100170001FB51FBD10B510BD00F031F81146FFF7D7
:10018000F7FF00F0B3F900F04FF803B4FFF7F2FF08
:1001900003BC00F057F800000948804709480047B1
:1001A000FEE7FEE7FEE7FEE7FEE7FEE7FEE7FEE727
:1001B000FEE7FEE704480549054A064B7047000084
:1001C000C9030008ED000008600000206006002060
:1001D000600200206002002070477047704775463B
:1001E00000F02CF8AE4605006946534620F00700A3
:1001F000854618B020B5FFF7DDFFBDE820404FF081
:1002000000064FF000074FF000084FF0000BAC461F
:10021000ACE8C009ACE8C009ACE8C009ACE8C0096A
:1002200021F007018D46704710B50446AFF30080FA
:100230002046BDE81040FFF7A8BF00000048704707
:100240000000002001491820ABBEFEE72600020096
:100250007047000041F21801C4F20201086841F23F
:10026000050210430860704743F20001C4F2010127
:10027000088840F004000880088840F038000880B2
:1002800043F20402C4F20102108840F0040010801E
:10029000088840F0400008807047000080B500F0FA
:1002A00001F880BD84B000200390029041F200016B
:1002B000C4F20201086840F480300860FFE741F2B0
:1002C0000000C4F20200006800F4003002900398BD
:1002D00001300390FFE702990020019039B9FFE750
:1002E0000398B0F5A06018BF01200190FFE70198C6
:1002F000C0070028E3D1FFE741F20000C4F202008A
:1003000000688003002803D5FFE70120029002E087
:1003100000200290FFE70298012851D1FFE742F246
:100320000001C4F20201086840F01000086008688B
:1003300020F007000860086840F00200086041F201
:100340000401C4F2020100910868086008680860AE
:10035000086840F480600860086820F47C10086039
:10036000086840F4E810086041F20001C4F202019C
:10037000086840F080700860FFE741F20000C4F2B6
:10038000020000688001002801D4FFE7F5E741F290
:100390000401C4F20201086820F003000860086844
:1003A00040F002000860FFE741F20400C4F20200DE
:1003B000006800F00C00082801D0FFE7F4E700E037
:1003C000FFE704B07047000080B541F20002C4F2BC
:1003D0000202106840F00100106041F20401C4F212
:1003E000020108680023CFF6FF0318400860106878
:1003F0004FF6FF73CFF6F66318401060106820F4D4
:1004000080201060086820F4FE00086041F20801B6
:10041000C4F202014FF41F000860FFF73FFF4EF6E1
:100420000851CEF200014FF00060086080BD00006E
:1004300080B582B00190FFE70198411E019118B18B
:10044000FFE700F003F8F7E702B080BDFFE74EF2E8
:100450001000CEF200000068C003002801D4FFE7BE
:10046000F5E7704740F60001C4F20101086820F08A
:100470000F000860086840F004000860086820F079
:10048000F000086008680860086820F47060086080
:10049000086840F440700860086820F47040086004
:1004A000086840F440500860086820F47020086034
:1004B000086840F430200860086820F47000086084
:1004C000086840F430000860086820F07060086038
:1004D000086840F080600860086820F0704008609C
:1004E000086840F0304008607047000080B582B076
:1004F00000200190FFF7AEFE00F030F8FFF7B2FFEA
:10050000FFF7B2FEFFE743F20C01C4F201015020F5
:100510000880FFE743F20800C4F2010000880006EB
:10052000002809D5FFE740F60C01C4F20101086874
:1005300040F008000860EDE74FF4FA700090FFF714
:1005400077FF009840F60C02C4F20102116821F016
:1005500008011160FFF76CFFD5E700004EF21401AF
:10056000CEF2000141F63F10C0F2010008604EF2E9
:100570001801CEF20001002008604EF21001CEF208
:100580000001052008607047980500080000002061
:080590006006000054010008A0
:040000050800019955
:00000001FF
